:100000000C9434000C9451000C9451000C94510049
:100010000C9451000C9451000C9451000C9451001C
:100020000C9451000C9451000C9451000C9451000C
:100030000C9451000C9451000C9451000C945100FC
:100040000C9451000C9451000C9451000C945100EC
:100050000C9451000C9451000C9451000C945100DC
:100060000C9403050C94510011241FBECFEFD8E06F
:10007000DEBFCDBF13E0A0E0B1E0E4E0F4E102C0F8
:1000800005900D92AC38B107D9F723E0ACE8B3E0A6
:1000900001C01D92AF3AB207E1F70E94FF010C9434
:1000A000000A0C9400008130D1F020F0823089F1F8
:1000B00081E00895613029F484B1482B44B980E08F
:1000C0000895862F8D7FC9F594B1842F809589235B
:1000D00084B96230A1F785B1482B45B9F0CF6130C2
:1000E00029F487B14695482B47B9E9CF862F8D7FF4
:1000F00021F527B1842F90E080959095959587956F
:10010000822387B96230D9F688B14695482B48B921
:10011000D6CF613021F48AB1482B4AB9D0CF862F8F
:100120008D7F59F49AB1842F809589238AB96230E2
:1001300031F68BB1482B4BB9C2CF83E008958130A3
:1001400081F128F0823009F452C081E008954830EE
:1001500008F073C0613059F484B121E030E001C08F
:10016000220F4A95EAF7822B84B980E00895862F02
:100170008D7F09F064C034B181E090E001C0880F48
:100180004A95EAF7282F2095232324B9623011F0ED
:1001900085E0089505B604FCFBCF95B1892B85B9A0
:1001A000E4CF473008F049C0613051F487B121E015
:1001B00030E001C0220F4A95EAF7822B87B9D5CFEC
:1001C000862F8D7FE1F537B181E090E001C0880F87
:1001D0004A95EAF7282F2095232327B96230C1F6E4
:1001E00005B604FCD5CF98B1892B88B9BECF48306D
:1001F00020F5613051F48AB121E030E001C0220FD6
:100200004A95EAF7822B8AB9B0CF862F8D7FB9F451
:100210003AB181E090E001C0880F4A95EAF7282FB3
:10022000209523232AB9623009F0B2CF05B604FC29
:10023000AFCF9BB1892B8BB998CF82E0089583E033
:100240000895813071F020F08230A1F081E00895AE
:1002500084B1841719F084B18F3FA1F465B980E0AF
:10026000089587B14F77841719F087B18F3751F40C
:1002700068B9F5CF8AB1841719F08AB18F3F11F4AC
:100280006BB9EDCF83E00895813059F128F08230C9
:1002900009F44AC081E00895683008F067C024B1CD
:1002A00081E090E0062E02C0880F991F0A94E2F7C1
:1002B00030E02823392302C0359527956A95E2F767
:1002C0002130310509F054C0413029F495B1892B12
:1002D00085B980E0089541114DC095B1809589237D
:1002E000F7CF673008F042C027B181E090E0062EDA
:1002F00002C0880F991F0A94E2F730E028233923BF
:1003000002C0359527956A95E2F72130310581F5D0
:10031000413021F498B1892B88B9DBCF41112AC033
:1003200098B180958923F8CF683000F52AB181E033
:1003300090E0062E02C0880F991F0A94E2F730E081
:100340002823392302C0359527956A95E2F7213095
:10035000310571F4413021F49BB1892B8BB9B9CFB0
:10036000411108C09BB180958923F8CF82E00895A0
:1003700083E0089584E00895FA01813001F120F0CE
:10038000823079F181E0089584B190E0062E02C0B8
:10039000959587950A94E2F780FD0DC0683068F462
:1003A00083B121E030E001C0220F6A95EAF7822391
:1003B000808380E00895683090F082E0089587B1EE
:1003C00090E0062E02C0959587950A94E2F780FD8D
:1003D00004C0673090F786B1E4CF673070F783E0F0
:1003E00008958AB190E0062E02C0959587950A94EB
:1003F000E2F780FDE0CF683000F789B1D2CFCF932C
:10040000DF9300D000D000D01F92CDB7DEB740E020
:1004100060E080E00E941E068FE39CE90197F1F7FF
:1004200000C000008AE091E00E94980660E081E050
:1004300090E00E94A4063B9883E480937C00809126
:100440007E00877F80937E0087E880937A0082E336
:1004500091E00E94980660E081E090E00E94A4068E
:100460004FEF61E080E00E9453008093AE03AFE362
:10047000BCE91197F1F700C000008091AE03811133
:1004800009C080E791E00E94980660E081E090E07A
:100490000E94A40682E08093AD034091AD034830F2
:1004A00008F4E8C1EFE3FCE93197F1F700C0000080
:1004B0008091AE03811109C08BE891E00E949806FB
:1004C00060E081E090E00E94A40640E062E081E00C
:1004D0000E949F008093AE038FE39CE90197F1F7A0
:1004E00000C000008091AE038111CEC18FEA91E07F
:1004F0000E94980660E081E090E00E94A40640E03F
:1005000060E87AE186E090E00E94F505AFE3BCE99F
:100510001197F1F700C0000087EF91E00E94980664
:1005200060E081E090E00E94A40687E0E3E0F1E073
:10053000DE01119601900D928A95E1F7789488E199
:1005400092E00E94980660E081E090E00E94A4069C
:1005500027E030E0AE014F5F5F4F60E088E60E9429
:10056000A1058823E9F0E2E9F3E098E1DF011D92BB
:100570009A95E9F71F928F931F928FE78F9381E4EB
:1005800092E09F938F93FF93EF930E94180782E965
:1005900093E00E9498060FB6F894DEBF0FBECDBF61
:1005A000219A8FEF91E09093890080938800809149
:1005B00080008068809380008091800083608093B9
:1005C000800080918100826080938100FFEF23EDA5
:1005D00080E3F15020408040E1F700C0000080E55A
:1005E00092E00E94980660E082E090E00E94A406FB
:1005F00002E913E048E1B42E59E6E52E52E0F52E6B
:1006000069E9962E71E4C72E72E0D72EE2E0AE2E95
:1006100027E030E0AE014F5F5F4F60E088E60E9468
:100620001405D801EB2D1D92EA95E9F7882309F40A
:1006300035C11F928F931F929F92DF92CF921F938B
:100640000F930E94180782E993E00E9498060FB664
:10065000F894DEBF0FBECDBF80917A008064809396
:100660007A0080917A0084FFFCCF95E39A95F1F7A8
:100670000000209178008091790090E0982F8827E1
:1006800088279370822B90938F0380938E034AE088
:1006900062E973E00E94F3060E94980660E082E03F
:1006A00090E00E94A4068AE892E00E94980660E02A
:1006B00082E090E00E94A4061092AA036091AA032F
:1006C000809100018150990B681719060CF408C13C
:1006D00060E081E090E00E94A4069FEFA1EEB4E00C
:1006E0009150A040B040E1F700C0000089EA92E0DC
:1006F0000E94980660E082E090E00E94A406A0922A
:10070000AA036091AA0380910001861708F01AC11C
:1007100060E081E090E00E94A406BFEFE1EEF4E02B
:10072000B150E040F040E1F700C0000088EC92E0FA
:100730000E94980660E082E090E00E94A406109279
:10074000AE034CEF6FEF82E00E9421018093AE0375
:10075000882371F08EEE92E00E9498068091AE039D
:10076000805D0E94910660E082E090E00E94A40615
:100770002FEF84E39CE0215080409040E1F700C0DF
:1007800000004CEF60E082E00E94210185EF92E0E2
:100790000E94980660E082E090E00E94A406109219
:1007A000AE034091AB035091AC0360E081E00E9446
:1007B000BC018093AE03E091AB03F091AC03908158
:1007C000913009F0EFC08111F4C088E093E00E94FD
:1007D000980660E082E090E00E94A4068AE493E03C
:1007E0000E94980660E082E090E00E94A406AFEFCD
:1007F000B1EEE4E0A150B040E040E1F700C00000FD
:100800008FE593E00E94980660E082E090E00E940D
:10081000A406809100018093AA038091AA032091ED
:10082000000190910101291B330B821713060CF074
:10083000CAC060918C038BE793E0662351F080E996
:1008400093E00E947F0680E993E00E9498068DE77E
:1008500093E00E94980660E082E090E00E94A40687
:10086000FFEF27EA81E6F15020408040E1F700C029
:100870000000CECE61E082E00E949F008093AE0334
:100880008091AD038F5F07CE86ED91E00E949806C0
:100890008091AE03805D0E9491062CCE89811F92CB
:1008A0008F938A811F928F938B811F928F938D815B
:1008B0001F928F938E811F928F938F811F928F93A0
:1008C000FF92EF921F930F930E94180782E993E023
:1008D0000E94980660E082E090E00E94A406B7CEF5
:1008E000613051F141E080E00E944401AFEFB1EE90
:1008F000E4E0A150B040E040E1F700C0000040E07B
:100900006091AA0380E00E944401FFEF21EE84E0A1
:10091000F15020408040E1F700C000008091AA0320
:10092000805D0E94910688E593E00E94980660E051
:1009300081E090E00E94A4068091AA038F5F8093DB
:10094000AA03BCCE41E082E00E944401EFEFF1EE49
:1009500024E0E150F0402040E1F700C0000040E01A
:100960006091AA0382E00E9444018FEF91EEA4E01F
:1009700081509040A040E1F700C000008091AA03A0
:10098000805D0E94910688E593E00E94980660E0F1
:1009900081E090E00E94A4068091AA038F5F80937B
:1009A000AA03AFCE911105C0811103C08DE193E080
:1009B0000ECF89E393E00E9498068091AE03805D9C
:1009C0000E94910606CF0E944B069091AA038823AD
:1009D00039F0963029F080918C038F5F80938C03DF
:1009E00091509093AA0319CF85E88093BC0080E4CE
:1009F00096E020910201283211F480E008950197D9
:100A0000C1F783E008951F920F920FB60F92112441
:100A10008F938091B900887F809302018F910F900E
:100A20000FBE0F901F901895EF92FF920F931F9398
:100A3000CF9395EA9093BC00E0E4F6E09091020138
:100A4000983051F4982F990F9093BB0095E89093AC
:100A5000BC00E0E4F6E00AC0319781F785E98093B5
:100A6000BC0081E02AC0319709F462C09091020174
:100A70009831C9F779018A01C82F6093BB000E94A1
:100A8000F404811140C095EA9093BC0020E436E064
:100A900090910201903151F4CC0FC160C093BB0022
:100AA00095E89093BC0020E436E010C02150310955
:100AB00079F785E98093BC0082E0CF911F910F9177
:100AC000FF90EF9008952150310991F1909102012A
:100AD0009034C9F7F80150E040E091E0E91AF108DC
:100AE00065EC4E155F0598F095E89093BC0020E406
:100AF00036E090910201983501F59091BB00040F0A
:100B0000151FF801908395E99093BC00D6CF6093B0
:100B1000BC0020E436E090910201903531F49091D0
:100B2000BB0091934F5F5F4FDCCF2150310999F7A4
:100B300085E98093BC0083E0C0CF21503109C9F61C
:100B40008DCFDF92EF92FF920F931F93CF93DF939E
:100B500095EA9093BC00E0E4F6E0909102019830B1
:100B600049F4880F8093BB0085E88093BC0080E443
:100B700096E009C0319789F785E98093BC0011E0C0
:100B800026C0019769F1709102017831D1F779019E
:100B9000052FD42E6093BB000E94F404182F8111FE
:100BA00007C0CD2DD02FEC0EFD1ECE15DF0521F494
:100BB00085E98093BC000BC089918093BB000E94A3
:100BC000F404882391F395E99093BC00182F812FAA
:100BD000DF91CF911F910F91FF90EF90DF900895DB
:100BE00085E98093BC0013E0F2CF0F931F93CF935E
:100BF0008B019C01C42F60E074E284EF90E0A901B6
:100C000098010E94D1062051310941095109569598
:100C10004795379527952093B80085E08093BC00D1
:100C200005B603FE09C0CC2339F0449A459A80E00A
:100C3000CF911F910F91089584E0FACF1092C500D3
:100C400098E09093C400813011F1B0F08230D1F07F
:100C5000662351F08091C10080648093C10080912F
:100C6000C10080628093C10080E1489FA0011124EF
:100C700046604093C20008958091C10088608093CF
:100C8000C100E6CF8091C10088608093C10080914F
:100C9000C1008061F4CF843009F138F4823049F129
:100CA000833009F180918D030895863059F080F0EA
:100CB0008730C1F78091C000881F8827881F8093E4
:100CC0008D03F0CF8091C00086FB882780F9F7CF95
:100CD0008091C00085FB882780F9F1CF8091C0000A
:100CE00082958170ECCF8091C00083FB882780F9CA
:100CF000E6CF8091C00082FB882780F9E0CFFC011D
:100D0000862F643668F46A3020F4805D8083118217
:100D100008956AE00E94C506805D8083905D91839E
:100D200008959091C00095FFFCCF8093C600089570
:100D3000CF93DF93EC018991811103C0DF91CF91B3
:100D400008950E949106F7CFEF92FF921F93CF93E1
:100D5000DF937C01162FD0E0C0E0CE15DF0554F004
:100D6000112369F08DE0DF91CF911F91FF90EF90FB
:100D70000C9491068AE00E9491062196EECFDF91B5
:100D8000CF911F91FF90EF900895991B79E004C0D7
:100D9000991F961708F0961B881F7A95C9F78095BA
:100DA0000895A1E21A2EAA1BBB1BFD010DC0AA1FAC
:100DB000BB1FEE1FFF1FA217B307E407F50720F0C4
:100DC000A21BB30BE40BF50B661F771F881F991F3F
:100DD0001A9469F760957095809590959B01AC0188
:100DE000BD01CF010895BB274A3031F4992322F485
:100DF000BDE2909581959F4F0C94FF06BB27FB01A8
:100E00005527AA27880F991FAA1FA41710F0A41B03
:100E100083955051B9F7A05DAA3308F0A95DA1935D
:100E2000009779F7B111B1931192CB010C942B0972
:100E3000AEE0B0E0EEE1F7E00C94D7090D891E8931
:100E400086E08C831A8309838FEF9FE79E838D83CF
:100E5000AE01475E5F4F6F89788DCE0101960E948B
:100E60003B072F813885020F131FF80110822E9641
:100E7000E4E00C94F309ABE0B0E0E1E4F7E00C94BB
:100E8000C9097C013B018A01FC011782168283811A
:100E900081FFC8C1CE0101965C01F7019381F30186
:100EA00093FD859193FF81913F01882309F453C1FC
:100EB000853239F493FD859193FF81913F0185320D
:100EC00029F4B70190E00E943B09E7CF912C212C37
:100ED000312CFFE1F31538F08B3211F190F48032B0
:100EE00009F1833229F137FC3CC020ED280F2A306C
:100EF00050F536FE20C08AE0989E200D1124922ED7
:100F000006C08D3291F0803371F7689430F8F301A8
:100F100093FD859193FF81913F018111DACF21C02B
:100F2000689431F8689432F8F2CF689433F8EFCFD0
:100F3000689434F8ECCFEAE02E9E200D1124222E86
:100F4000689435F8E4CF8E3229F436FC04C16894F5
:100F500036F8DDCF8C3619F4689437F8D8CF883658
:100F6000B1F2982F9F7D95549330E0F08336A1F134
:100F70008337C1F1833509F063C02801F2E04F0ED9
:100F8000511CF801C080D180692D70E036FC02C090
:100F90006FEF7FEFC6010E9415094C01689437F886
:100FA00082010AC00C5F1F4FFFE3F98388248394FA
:100FB000912C6501E89437F833FE2DC0522C811432
:100FC000910471F5552009F468CFB70180E290E0F3
:100FD0000E943B095A94F6CFF801808189830E5F05
:100FE0001F4FE4CF2801F2E04F0E511CF801C080E2
:100FF000D180692D70E036FC02C06FEF7FEFC60133
:101000000E9420094C018201D5CFB70180E290E017
:101010000E943B092A942814190409F0B0F7CECF96
:10102000F60137FC859137FE81916F01B70190E0A1
:101030000E943B0951105A94F1E08F1A9108BFCFDA
:10104000843619F0893609F077C0F80137FE6BC095
:1010500060817181828193810C5F1F4FF32DFF7638
:101060003F2E97FF09C090958095709561957F4FB1
:101070008F4F9F4F689437F82AE030E0A5010E9417
:101080006B09C82ECA188C2C432C36FE0CC0E89471
:1010900040F8C91440F434FE05C032FC03C0F32DFF
:1010A000FE7E4F2E892C44FE95C0FE01EC0DF11DF5
:1010B0008081803309F087C0242D297E422E842D23
:1010C0008870582E43FC95C040FE8FC09C2C821423
:1010D00018F42C0C922C981844FE91C0B70180E3B0
:1010E00090E00E943B0942FE09C088E790E041FE83
:1010F00002C088E590E0B7010E943B09C91408F4DA
:101100008AC0CA94D12C9FEFC91AD90ACA0CDB1C19
:10111000F60182916F01B70190E00E943B09AC1487
:10112000BD04B1F74FCF60817181072E000C880B91
:10113000990B0E5F1F4F92CFD32CE894D4F82AE07E
:1011400030E0853739F1232D297FD22E8F3601F1FA
:1011500048F48835A9F0F701868197812B96E2E162
:101160000C94E509803749F08837A9F7D4FE02C00E
:101170006894D2F820E130E00DC06894D4F8F6CF3E
:1011800034FE03C0822F8660D82E20E132E002C0F8
:1011900028E030E0F801D7FE0FC0608171818281C4
:1011A00093810C5F1F4FA5010E946B09C82ECA18BE
:1011B0003D2CE89437F867CF6081718190E080E042
:1011C0000E5F1F4FF0CF42FC02C0839478CF839410
:1011D000839475CF842D867809F471CFF6CFB7014B
:1011E00080E290E00E943B0983948214C0F3512C6A
:1011F00073CF522C5818821408F46ECFF8CF842D78
:10120000867809F47BCF8BE241FE80E247FC8DE2D9
:10121000B70190E071CFB70180E390E00E943B09F5
:101220009A946CCF8FEF9FEF99CFFC01059061509E
:1012300070400110D8F7809590958E0F9F1F0895EC
:10124000FC016150704001900110D8F78095909595
:101250008E0F9F1F0895DC01FC01672F719177238A
:10126000E1F7329704C07C916D9370836291AE1761
:10127000BF07C8F308950F931F93CF93DF93182FE1
:10128000092FEB018B8181FD09C01FEF0FEF812F2B
:10129000902FDF91CF911F910F91089582FF14C07D
:1012A0002E813F818C819D81281739073CF4E8818C
:1012B000F981CF0101969983888310838E819F8164
:1012C00001969F838E83E3CFE885F985812F099569
:1012D000892BA1F3DACFFA01AA27283051F1203166
:1012E00081F1E8946F936E7F6E5F7F4F8F4F9F4FBA
:1012F000AF4FB1E03ED0B4E03CD0670F781F891FFC
:101300009A1FA11D680F791F8A1F911DA11D6A0FC9
:10131000711D811D911DA11D20D009F468943F917C
:101320002AE0269F11243019305D3193DEF6CF017B
:101330000895462F4770405D4193B3E00FD0C9F741
:10134000F6CF462F4F70405D4A3318F0495D31FDAE
:101350004052419302D0A9F7EACFB4E0A695979501
:10136000879577956795BA95C9F7009761057105D7
:1013700008959B01AC010A2E069457954795379521
:101380002795BA95C9F7620F731F841F951FA01D7B
:1013900008952F923F924F925F926F927F928F9219
:1013A0009F92AF92BF92CF92DF92EF92FF920F93F4
:1013B0001F93CF93DF93CDB7DEB7CA1BDB0B0FB6FE
:1013C000F894DEBF0FBECDBF09942A8839884888BB
:1013D0005F846E847D848C849B84AA84B984C88451
:1013E000DF80EE80FD800C811B81AA81B981CE0F48
:1013F000D11D0FB6F894DEBF0FBECDBFED0108952D
:04140000F894FFCF8E
:101404000706F85046200716072355415254206317
:101414006F6E66696775726564206173206F757499
:10142400707574204020313135323030206261755E
:10143400640041444320696E697469616C697A652A
:101444006420746F20726561642066726F6D205031
:101454004336207769746820312E315620696E74C2
:1014640065726E616C207265666572656E63650097
:10147400504F52544220636F6E666967757265649B
:10148400206173206F757470757400504F5254440A
:10149400206269747320323A3720636F6E6669671D
:1014A40075726564206173206F7574707574005073
:1014B4004F52544320626974203020636F6E666912
:1014C400677572656420617320696E70757420702D
:1014D400756C6C7570004572726F7220696E6974F8
:1014E40069616C697A696E67204750494F20696E5B
:1014F4007075742E2E2E0054574920626974207220
:1015040061746520616E642053434C20696E697474
:1015140069616C697A65640054616B696E67206304
:101524006F6E74726F6C206F6620616E64207772C8
:101534006974696E6720746F204932432062757341
:10154400002564206572726F722025640D0A0A00FA
:10155400496E697469616C697A6174696F6E20633C
:101564006F6D706C6574652E000D323025303278E5
:101574002F253032782F2530327820253032783AB2
:10158400253032783A2530327800466C61736869C8
:101594006E67206269747320303A35206F6E207054
:1015A4006F727420422E2E2E00466C617368696E31
:1015B40067206269747320323A37206F6E20706F2F
:1015C400727420442E2E2E0057726974696E67203F
:1015D4006269747320323A37206F6E20706F7274B0
:1015E4002044206174206F6E63652E2E2E00457298
:1015F400726F72200052656164696E672050494EB3
:10160400432062697420300050696E2043302069A1
:10161400732070756C6C6564207570210050696E60
:101624002043302069732070756C6C656420646F8E
:10163400776E2E2E2E203A28004750494F2072658F
:101644006164206572726F722000416C6C20475097
:10165400494F20746573747320646F6E652E005354
:1016640074617274696E67205541525420466C61EE
:101674006720436865636B2E2E2E004E6F20666CC8
:0C16840061677320666F756E642E0000B5
:00000001FF
